:100000007530EAAC0112004A12003875A0FF856F06
:100010008075A00712007275A0FF856E8075A00B19
:1000200012007275A0FF856D8075A00D120072DC44
:10003000DAE53004C53080CD7A03787F796F90009F
:100040007BE693F4F71819DAF522757D00757E00CA
:10005000757F00787F853031E53075F00A84FE7554
:10006000F00AA4C5309530F6188E30EE70EA85316E
:1000700030227D027EFADEFEDDFA227E306D79339B
:0B0080005B5F707F7B771F4E3D4F479A
:00000001FF
